:020000040000FA
:020000000800F6
:0200010007FCFA
:0200020007F8FD
:0200030007F400
:0200040007F003
:0200050007EC06
:0200060007E809
:0200070007E40C
:0200080007E00F
:0200090007DC12
:02000A0007D914
:02000B0007D517
:02000C0007D11A
:02000D0007CD1D
:02000E0007C920
:02000F0007C622
:0200100007C225
:0200110007BE28
:0200120007BB2A
:0200130007B72D
:0200140007B330
:0200150007B032
:0200160007AC35
:0200170007A937
:0200180007A53A
:0200190007A23C
:02001A00079E3F
:02001B00079B41
:02001C00079744
:02001D00079446
:02001E00079049
:02001F00078D4B
:0200200007894E
:02002100078650
:02002200078253
:02002300077F55
:02002400077C57
:0200250007785A
:0200260007755C
:0200270007725E
:02002800076E61
:02002900076B63
:02002A00076865
:02002B00076567
:02002C0007616A
:02002D00075E6C
:02002E00075B6E
:02002F00075870
:02003000075572
:02003100075175
:02003200074E77
:02003300074B79
:0200340007487B
:0200350007457D
:0200360007427F
:02003700073F81
:02003800073C83
:02003900073985
:02003A00073588
:02003B0007328A
:02003C00072F8C
:02003D00072C8E
:02003E00072990
:02003F00072692
:02004000072394
:02004100072195
:02004200071E97
:02004300071B99
:0200440007189B
:0200450007159D
:0200460007129F
:02004700070FA1
:02004800070CA3
:020049000709A5
:02004A000706A7
:02004B000704A8
:02004C000701AA
:02004D0006FEAD
:02004E0006FBAF
:02004F0006F8B1
:0200500006F6B2
:0200510006F3B4
:0200520006F0B6
:0200530006EDB8
:0200540006EBB9
:0200550006E8BB
:0200560006E5BD
:0200570006E3BE
:0200580006E0C0
:0200590006DDC2
:02005A0006DAC4
:02005B0006D8C5
:02005C0006D5C7
:02005D0006D3C8
:02005E0006D0CA
:02005F0006CDCC
:0200600006CBCD
:0200610006C8CF
:0200620006C5D1
:0200630006C3D2
:0200640006C0D4
:0200650006BED5
:0200660006BBD7
:0200670006B9D8
:0200680006B6DA
:0200690006B4DB
:02006A0006B1DD
:02006B0006AFDE
:02006C0006ACE0
:02006D0006AAE1
:02006E0006A7E3
:02006F0006A5E4
:0200700006A2E6
:0200710006A0E7
:02007200069DE9
:02007300069BEA
:020074000699EB
:020075000696ED
:020076000694EE
:020077000691F0
:02007800068FF1
:02007900068DF2
:02007A00068AF4
:02007B000688F5
:02007C000686F6
:02007D000683F8
:02007E000681F9
:02007F00067FFA
:02008000067CFC
:02008100067AFD
:020082000678FE
:02008300067500
:02008400067301
:02008500067102
:02008600066F03
:02008700066C05
:02008800066A06
:02008900066807
:02008A00066608
:02008B0006630A
:02008C0006610B
:02008D00065F0C
:02008E00065D0D
:02008F00065B0E
:02009000065810
:02009100065611
:02009200065412
:02009300065213
:02009400065014
:02009500064E15
:02009600064B17
:02009700064918
:02009800064719
:0200990006451A
:02009A0006431B
:02009B0006411C
:02009C00063F1D
:02009D00063D1E
:02009E00063B1F
:02009F00063821
:0200A000063622
:0200A100063423
:0200A200063224
:0200A300063025
:0200A400062E26
:0200A500062C27
:0200A600062A28
:0200A700062829
:0200A80006262A
:0200A90006242B
:0200AA0006222C
:0200AB0006202D
:0200AC00061E2E
:0200AD00061C2F
:0200AE00061A30
:0200AF00061831
:0200B000061632
:0200B100061433
:0200B200061234
:0200B300061035
:0200B400060E36
:0200B500060C37
:0200B600060B37
:0200B700060938
:0200B800060739
:0200B90006053A
:0200BA0006033B
:0200BB0006013C
:0200BC0005FF3E
:0200BD0005FD3F
:0200BE0005FB40
:0200BF0005F941
:0200C00005F841
:0200C10005F642
:0200C20005F443
:0200C30005F244
:0200C40005F045
:0200C50005EE46
:0200C60005ED46
:0200C70005EB47
:0200C80005E948
:0200C90005E749
:0200CA0005E54A
:0200CB0005E34B
:0200CC0005E24B
:0200CD0005E04C
:0200CE0005DE4D
:0200CF0005DC4E
:0200D00005DB4E
:0200D10005D94F
:0200D20005D750
:0200D30005D551
:0200D40005D352
:0200D50005D252
:0200D60005D053
:0200D70005CE54
:0200D80005CD54
:0200D90005CB55
:0200DA0005C956
:0200DB0005C757
:0200DC0005C657
:0200DD0005C458
:0200DE0005C259
:0200DF0005C05A
:0200E00005BF5A
:0200E10005BD5B
:0200E20005BB5C
:0200E30005BA5C
:0200E40005B85D
:0200E50005B65E
:0200E60005B55E
:0200E70005B35F
:0200E80005B160
:0200E90005B060
:0200EA0005AE61
:0200EB0005AC62
:0200EC0005AB62
:0200ED0005A963
:0200EE0005A863
:0200EF0005A664
:0200F00005A465
:0200F10005A365
:0200F20005A166
:0200F30005A066
:0200F400059E67
:0200F500059C68
:0200F600059B68
:0200F700059969
:0200F800059869
:0200F90005966A
:0200FA0005946B
:0200FB0005936B
:0200FC0005916C
:0200FD0005906C
:0200FE00058E6D
:0200FF00058D6D
:02010000058B6D
:0201010005896E
:02010200058670
:02010300058471
:02010400058173
:02010500057F74
:02010600057D75
:02010700057A77
:02010800057878
:0201090005757A
:02010A0005737B
:02010B0005717C
:02010C00056E7E
:02010D00056C7F
:02010E00056A80
:02010F00056881
:02011000056583
:02011100056384
:02011200056185
:02011300055E87
:02011400055C88
:02011500055A89
:0201160005588A
:0201170005568B
:0201180005538D
:0201190005518E
:02011A00054F8F
:02011B00054D90
:02011C00054B91
:02011D00054992
:02011E00054694
:02011F00054495
:02012000054296
:02012100054097
:02012200053E98
:02012300053C99
:02012400053A9A
:0201250005389B
:0201260005369C
:0201270005349D
:0201280005329E
:0201290005309F
:02012A00052DA1
:02012B00052BA2
:02012C000529A3
:02012D000527A4
:02012E000525A5
:02012F000523A6
:020130000521A7
:020131000520A7
:02013200051EA8
:02013300051CA9
:02013400051AAA
:020135000518AB
:020136000516AC
:020137000514AD
:020138000512AE
:020139000510AF
:02013A00050EB0
:02013B00050CB1
:02013C00050AB2
:02013D000509B2
:02013E000507B3
:02013F000505B4
:020140000503B5
:020141000501B6
:0201420004FFB8
:0201430004FDB9
:0201440004FCB9
:0201450004FABA
:0201460004F8BB
:0201470004F6BC
:0201480004F4BD
:0201490004F3BD
:02014A0004F1BE
:02014B0004EFBF
:02014C0004EDC0
:02014D0004EBC1
:02014E0004EAC1
:02014F0004E8C2
:0201500004E6C3
:0201510004E5C3
:0201520004E3C4
:0201530004E1C5
:0201540004DFC6
:0201550004DEC6
:0201560004DCC7
:0201570004DAC8
:0201580004D9C8
:0201590004D7C9
:02015A0004D5CA
:02015B0004D4CA
:02015C0004D2CB
:02015D0004D0CC
:02015E0004CFCC
:02015F0004CDCD
:0201600004CBCE
:0201610004CACE
:0201620004C8CF
:0201630004C6D0
:0201640004C5D0
:0201650004C3D1
:0201660004C2D1
:0201670004C0D2
:0201680004BED3
:0201690004BDD3
:02016A0004BBD4
:02016B0004BAD4
:02016C0004B8D5
:02016D0004B7D5
:02016E0004B5D6
:02016F0004B3D7
:0201700004B2D7
:0201710004B0D8
:0201720004AFD8
:0201730004ADD9
:0201740004ACD9
:0201750004AADA
:0201760004A9DA
:0201770004A7DB
:0201780004A6DB
:0201790004A4DC
:02017A0004A3DC
:02017B0004A1DD
:02017C0004A0DD
:02017D00049EDE
:02017E00049DDE
:02017F00049BDF
:02018000049ADF
:020181000498E0
:020182000497E0
:020183000495E1
:020184000494E1
:020185000493E1
:020186000491E2
:020187000490E2
:02018800048EE3
:02018900048DE3
:02018A00048BE4
:02018B00048AE4
:02018C000489E4
:02018D000487E5
:02018E000486E5
:02018F000484E6
:020190000483E6
:020191000482E6
:020192000480E7
:02019300047FE7
:02019400047EE7
:02019500047CE8
:02019600047BE8
:02019700047AE8
:020198000478E9
:020199000477E9
:02019A000475EA
:02019B000474EA
:02019C000473EA
:02019D000471EB
:02019E000470EB
:02019F00046FEB
:0201A000046DEC
:0201A100046CEC
:0201A200046BEC
:0201A300046AEC
:0201A4000468ED
:0201A5000467ED
:0201A6000466ED
:0201A7000464EE
:0201A8000463EE
:0201A9000462EE
:0201AA000461EE
:0201AB00045FEF
:0201AC00045EEF
:0201AD00045DEF
:0201AE00045BF0
:0201AF00045AF0
:0201B0000459F0
:0201B1000458F0
:0201B2000456F1
:0201B3000455F1
:0201B4000454F1
:0201B5000453F1
:0201B6000452F1
:0201B7000450F2
:0201B800044FF2
:0201B900044EF2
:0201BA00044DF2
:0201BB00044BF3
:0201BC00044AF3
:0201BD000449F3
:0201BE000448F3
:0201BF000447F3
:0201C0000445F4
:0201C1000444F4
:0201C2000443F4
:0201C3000442F4
:0201C4000441F4
:0201C500043FF5
:0201C600043EF5
:0201C700043DF5
:0201C800043CF5
:0201C900043BF5
:0201CA00043AF5
:0201CB000438F6
:0201CC000437F6
:0201CD000436F6
:0201CE000435F6
:0201CF000434F6
:0201D0000433F6
:0201D1000432F6
:0201D2000430F7
:0201D300042FF7
:0201D400042EF7
:0201D500042DF7
:0201D600042CF7
:0201D700042BF7
:0201D800042AF7
:0201D9000429F7
:0201DA000427F8
:0201DB000426F8
:0201DC000425F8
:0201DD000424F8
:0201DE000423F8
:0201DF000422F8
:0201E0000421F8
:0201E1000420F8
:0201E200041FF8
:0201E300041EF8
:0201E400041DF8
:0201E500041BF9
:0201E600041AF9
:0201E7000419F9
:0201E8000418F9
:0201E9000417F9
:0201EA000416F9
:0201EB000415F9
:0201EC000414F9
:0201ED000413F9
:0201EE000412F9
:0201EF000411F9
:0201F0000410F9
:0201F100040FF9
:0201F200040EF9
:0201F300040DF9
:0201F400040CF9
:0201F500040BF9
:0201F600040AF9
:0201F7000409F9
:0201F8000408F9
:0201F9000407F9
:0201FA000406F9
:0201FB000405F9
:0201FC000404F9
:0201FD000403F9
:0201FE000402F9
:0201FF000401F9
:00000001ff
