:020000040000FA
:03000000000004F9
:03000100000AA64C
:03000200002A6F62
:03000300005F2E6D
:0300040000A8B59C
:030005000106D61B
:0300060001796419
:03000700020031C3
:03000800029B1246
:030009000349DBCD
:03000A00000C6186
:03000B0000E27898
:03000C0001CBF72E
:03000D0002C8B472
:03000E0003D8858F
:03000F0000FB43B0
:030010000230C4F7
:030011000378E190
:0300120000D373A5
:0300130002405355
:0300140003BF5ACD
:0300150001506334
:0300160002F348AA
:0300170000A7E45B
:03001800026E1263
:030019000045AFF0
:03001A00022E951E
:03001B000028A317
:03001C000233B4F8
:03001D00004FA7EA
:03001E00027C5809
:03001F0000B9A77E
:0300200003077261
:03002100016597DF
:0300220003D3F70E
:0300230002526F17
:0300240000E0E217
:03002500037F2E28
:03002600022D3573
:0300270000EAD814
:0300280003B7F724
:03002900029476C8
:03002A000180351D
:03002B00007B1740
:03002C000384FF4B
:03002D00029DD061
:03002E0001C56D9C
:03002F0000FBBA19
:0300300000409AF3
:030031000393F244
:0300320002F5A72D
:0300330002659CC7
:0300340001E3B82D
:03003500016FDF79
:030036000109F7C6
:0300370000B1E62F
:03003800006793CB
:03003900002AE3B7
:03003A0003FBBD08
:03003B0003DA09DC
:03003C0003C5AD4C
:03003D0003BE916E
:03003E0003C49D5B
:03003F0003D7B82C
:0300400003F7CBF8
:030041000024BFD9
:03004200005E7BE2
:0300430000A4EA2C
:0300440000F7F3CF
:03004500015781DF
:0300460001C37C77
:03004700023BD0A9
:0300480002C0658E
:030049000351263A
:03004A0003EDFEC5
:03004B000096D745
:03004C00014B9CC9
:03004D00020C386A
:03004E0002D8973E
:03004F0003B0A457
:0300500000944ACF
:03005100018375B3
:03005200027E1318
:0300530003840E15
:03005400009553C1
:0300550001B1CF27
:0300560002D96F5D
:03005700000C1F7B
:030058000149CE8D
:03005900029268A8
:03005A0003E5DAE1
:03005B000144134A
:03005C0002AD00F2
:03005D00002090F0
:03005E00019EB050
:03005F0003274F25
:0300600000BA5C87
:030061000257C57E
:0300620003FF7920
:0300630001B16781
:03006400036D7EAB
:030065000133ADB7
:030066000303E5AC
:0300670000DE14A4
:0300680002C22AA7
:0300690000B018CC
:03006A0002A7CD1D
:03006B0000A93AAF
:03006C0002B44E8D
:03006D0000C8FBCD
:03006E0002E73076
:03006F00010EE09F
:03007000033FF952
:03007100017A6FA2
:0300720003BE3199
:03007300020B314C
:03007400006160C8
:0300750002C0B016
:030076000129134A
:03007700039A7A6F
:030078000214D897
:0300790000981ECE
:03007A0003243E1E
:03007B0001B92B9D
:03007C000056D754
:03007D0002FD344D
:03007E0001AC369C
:03007F000063CE4D
:030080000323F166
:0300810001EC90FF
:0300820000BD9E20
:03008300039710D0
:030084000278D827
:030085000162E92C
:03008600005538EA
:03008700034FB76D
:0300880002525AC7
:03008900015D1600
:03008A00006FDE26
:03008B00038AA540
:03008C0002AD6161
:03008D0001D80592
:03008E00010A86DE
:03008F000044D753
:030090000386EEF6
:0300910002D0BFDB
:0300920002223F08
:03009300017B628C
:0300940000DC1E6F
:03009500004467BD
:0300960003B4327E
:03009700032B74C4
:0300980002AA2396
:03009900023034FE
:03009A0001BD9C09
:03009B00015250BF
:03009C0000EE472C
:03009D0000917659
:03009E00003BD252
:03009F0003ED511D
:0300A00003A5EACB
:0300A10003659262
:0300A200032C3FED
:0300A30002F9E778
:0300A40002CE8009
:0300A50002AA02AA
:0300A600028C6168
:0300A7000275944B
:0300A8000265935B
:0300A900025C52A4
:0300AA000259CA2E
:0300AB00025DF102
:0300AC000268BD2A
:0300AD00027A25AF
:0300AE000292209B
:0300AF0002B0A6F6
:0300B00002D5ADC9
:0300B10003012C1C
:0300B20003331BFA
:0300B300036B706C
:0300B40003AA2379
:0300B50003EF2C2A
:0300B600003A828B
:0300B700008C1C9E
:0300B80000E3F270
:0300B9000141FB07
:0300BA0001A6306C
:0300BB00021087A9
:0300BC000280FAC5
:0300BD0002F77FC8
:0300BE0003740EBA
:0300BF0003F6A0A5
:0300C000007F2D91
:0300C100010DAC82
:0300C20001A21682
:0300C300023C6399
:0300C40002DC8BD0
:0300C5000382882B
:0300C600002E50B9
:0300C70000DFDC7B
:0300C80001972677
:0300C900025425B9
:0300CA000316D248
:0300CB0003DF262A
:0300CC0000AD1A6A
:0300CD000180A50A
:0300CE000259C212
:0300CF000338698A
:0300D000001C927F
:0300D100010637EE
:0300D20001F551E4
:0300D30002E9D966
:0300D40003E3C77C
:0300D50000E3162F
:0300D60001E7BE81
:0300D70002F1B87B
:0300D8000000FE27
:0300D90001158A84
:0300DA00022F549E
:0300DB00034E567B
:0300DC0000728926
:0300DD00019BE79D
:0300DE0002CA6AE9
:0300DF0003FE0B12
:0300E0000136C422
:0300E10002748F17
:0300E20003B764FD
:0300E30000FF3FDC
:0300E400024C18B3
:0300E500039DEA8E
:0300E60000F4AF74
:0300E70002506163
:0300E80003B0F969
:0300E9000116718C
:0300EA000280C4CD
:0300EB0003EFEC34
:0300EC000163E3CA
:0300ED0002DCA38F
:0300EE00005A268F
:0300EF0001DC67CA
:0300F00003636047
:0300F10000EF0B12
:0300F200027F6327
:0300F30000146195
:0300F40001AE0258
:0300F500034C3E7B
:0300F60000EF1008
:0300F700029674FA
:0300F80000426360
:0300F90001F2D938
:0300FA0003A7CF8A
:0300FB000161415F
:0300FC00031F2AB5
:0300FD0000E1839C
:0300FE0002A8490C
:0300FF0000737516
:03010000024303B4
:0301010000777014
:0301020002B81E22
:030103000104F400
:03010400035DD7C1
:0301050001C2AE86
:0301060000335F64
:0301070002AFD074
:030108000137EAD2
:0301090003CB9293
:03010A00026AB2D4
:03010B00011531AA
:03010C0003CAF72C
:03010D00028BED75
:03010E000157FB9B
:03010F00002F0CB2
:03011000031107D1
:0301110001FDD716
:0301120000F5668F
:0301130003F79D52
:0301140003046879
:03011500021BB01A
:03011600013D6147
:0301170000696517
:03011800039FA999
:0301190002E017EA
:03011A00022A9B1B
:03011B00017F223F
:03011C0000DD986B
:03011D000045E8B2
:03011E0003B80122
:03011F000333CDDA
:0301200002B93CE5
:0301210002483A57
:0301220001E0B445
:03012300018299BD
:03012400012DD5D5
:0301250000E2589D
:0301260000A00F27
:030127000066EA85
:030128000036D6C8
:03012900000FC202
:03012A0003F19E40
:03012B0003DC5999
:03012C0003CFE21C
:03012D0003CC28D8
:03012E0003D11CDE
:03012F0003DEAE3E
:0301300003F4CC09
:030131000013694F
:03013200003A731D
:030133000069DC84
:0301340000A19493
:0301350000E18C5A
:030136000129B5E7
:03013700017A0149
:0301380001D26091
:030139000232C4CB
:03013A00029B1F06
:03013B00030B6350
:03013C00038380BA
:03013D0000036B51
:03013E00008B141F
:03013F00011A6E34
:0301400001B16B9F
:03014100024FFE6C
:0301420002F61AA8
:0301430003A3B162
:030144000058B7A9
:0301450001151E83
:0301460001D8DB02
:0301470002A3DF31
:0301480003761F1C
:03014900004F8FD5
:03014A0001302160
:03014B000217CACE
:03014C0003067E29
:03014D0003FC317F
:03014E0000F8D6E0
:03014F0001FC634D
:030150000306CBD8
:030151000018048F
:0301520001300178
:03015300024EB8A1
:0301540003741D14
:0301550000A026E1
:0301560001D2C60D
:03015700030BF4A3
:03015800004BA5B4
:030159000191CD44
:03015A0002DE635F
:03015B0000315C14
:03015C00018AAD68
:03015D0002EA4C67
:03015E000050301E
:03015F0001BC4D93
:03016000032E9AD1
:0301610000A70DE7
:0301620002259DD6
:0301630003AA3EAE
:030164000134E97A
:0301650002C5923E
:03016600005C3109
:0301670001F8BDDF
:03016800039B2BCB
:03016900014373DC
:03016A0002F18C13
:03016B0000A56C80
:03016C00025F0A25
:03016D00001E5E13
:03016E0001E35F4B
:03016F0003AE03D9
:03017000017E43CA
:030171000354161E
:03017200012F72E8
:0301730003105026
:0301740000F6A7EB
:0301750002E26F34
:0301760000D3A013
:0301770002CA3188
:0301780000C61AA4
:0301790002C75367
:03017A0000CDD5E0
:03017B0002D9970F
:03017C0000EA9105
:03017D000300BDBF
:03017E00011C1150
:03017F00033C86B8
:0301800001621504
:03018100038CB636
:0301820001BC625B
:0301830003F11273
:03018400022ABD8F
:0301850000695DB1
:0301860002ACEADE
:0301870000F55E22
:030188000342B17E
:030189000194DC02
:03018A0003EBD8AC
:03018B0002479E8A
:03018C0000A828A0
:03018D00030D6EF1
:03018E000177698D
:03018F0003E61470
:03019000025967AA
:0301910000D15B3F
:03019200034DEB2F
:0301930001CF0F8A
:030194000054C252
:0301950002DEFC8B
:03019600016DB741
:030197000000EE77
:0301980002989931
:030199000134B37B
:03019A0003D53555
:03019B00027A1ACB
:03019C0001235BE1
:03019D0003D0F29A
:03019E000282DA00
:03019F0001390B18
:0301A00003F382E4
:0301A10002B23671
:0301A200017524C0
:0301A300003C45D8
:0301A400030793BB
:0301A50001D70877
:0301A60000AAA00C
:0301A7000382547C
:0301A800025E1FD5
:0301A900013DFC19
:0301AA000021E44D
:0301AB000309D372
:0301AC0001F5C496
:0301AD0000E5B0BA
:0301AE0003D992E0
:0301AF0002D16614
:0301B00001CD2757
:0301B10000CCCEB1
:0301B20003D05720
:0301B30002D7BCB4
:0301B40001E2F96C
:0301B50000F2094C
:0301B6000004E65C
:0301B700031B8C9B
:0301B8000235F617
:0301B90001541ED0
:0301BA00007601CB
:0301BB00039B980B
:0301BC0002C4E09A
:0301BD0001F1D479
:0301BE0001226FAC
:0301BF000056AC3B
:0301C000038E8625
:0301C10002C9FA76
:0301C2000209022D
:0301C300014B9954
:0301C4000091BCEB
:0301C50003DB66F3
:0301C60003289378
:0301C70002793D7D
:0301C80001CD6105
:0301C9000124FB13
:0301CA00008005AD
:0301CB0003DE7CD4
:0301CC0003405B92
:0301CD0002A59FE9
:0301CE00020E42DC
:0301CF00017A4171
:0301D00000E998AB
:0301D100005C428D
:0301D20003D23B1A
:0301D300034B805B
:0301D40002C80C52
:0301D5000247DB03
:0301D60001CAEA71
:0301D7000151349F
:0301D80000DAB595
:0301D90000676A52
:0301DA0003F74EDA
:0301DB00038A5E36
:0301DC0003209667
:0301DD0002B9F272
:0301DE0002566F57
:0301DF0001F6081E
:0301E0000198BAC9
:0301E100013E815B
:0301E20000E759DA
:0301E30000934046
:0301E400004230A6
:0301E50003F428F8
:0301E60003A92248
:0301E70003611C95
:0301E800031C12E3
:0301E90002DA0037
:0301EA00029AE393
:0301EB00025EB8F9
:0301EC0002257B6E
:0301ED0001EF28F7
:0301EE0001BBBC96
:0301EF00018B354C
:0301F000015D8E20
:0301F1000132C414
:0301F200010AD42B
:0301F30000E5BB69
:0301F40000C375D0
:0301F50000A3FE66
:0301F6000087552A
:0301F700006D7622
:0301F80000565D51
:0301F900004207BA
:0301FA0000307161
:0301FB0000219848
:0301FC0000157A71
:0301FD00000C12E1
:0301FE0000055D9C
:0301FF0000015AA2
:00000001ff
