:020000040000FA
:03000000000003FA
:03000100001544A3
:03000200002A5081
:03000300003F2E8D
:030004000053DFC7
:030005000068622E
:03000600007CB7C4
:030007000090E383
:0300080000A4E170
:0300090000B8B389
:03000A0000CC58CF
:03000B0000DFD63D
:03000C0000F327D7
:03000D0001064F9A
:03000E0001195283
:03000F00012C2998
:03001000013ED8D6
:0300110001516238
:030012000163C4C3
:030013000175FD77
:030014000188134D
:03001500019A014C
:0300160001ABCC6F
:0300170001BD6EBA
:0300180001CEF026
:0300190001E049BA
:03001A0001F1856C
:03001B0002029747
:03001C0002138C40
:03001D0002245A60
:03001E0002350A9E
:03001F0002459700
:0300200002560085
:0300210002664C28
:03002200027672F1
:0300230002867FD3
:03002400029667DA
:0300250002A632FE
:0300260002B5DD43
:0300270002C567A8
:0300280002D4D827
:0300290002E425C9
:03002A0002F35886
:03002B0003026E5F
:03002C0003116558
:03002D0003203F6E
:03002E00032EFDA1
:03002F00033D9EF0
:03003000034C245A
:03003100035A8EE1
:030032000368DB85
:0300330003770F41
:030034000385271A
:030035000393260C
:0300360003A10A19
:0300370003AED540
:0300380003BC8482
:0300390003CA1BDC
:03003A0003D79A4F
:03003B0003E4FEDD
:03003C0003F24B81
:03003D0003FF7F3F
:03003E00000C981B
:03003F0000199E07
:0300400000268C0B
:0300410000335D2C
:0300420000401D5E
:03004300004CC1AD
:030044000059520E
:030045000065C98A
:0300460000722F16
:03004700007E7ABE
:03004800008AB17A
:030049000096D44A
:03004A0000A2DF32
:03004B0000AED62E
:03004C0000BAB641
:03004D0000C68565
:03004E0000D23BA2
:03004F0000DDDDF4
:0300500000E96D57
:0300510000F4EBCD
:0300520001004F5B
:03005300010BA4FA
:030054000116E6AC
:0300550001221372
:03005600012D2C4D
:0300570001383637
:0300580001432839
:03005900014E0A4B
:03005A000158DB6F
:03005B00016399A5
:03005C00016E44EE
:03005D000178DD4A
:03005E00018364B7
:03005F00018DDC34
:03006000019840C4
:0300610001A29267
:0300620001ACD41A
:0300630001B705DD
:0300640001C126B1
:0300650001CB3993
:0300660001D5378A
:0300670001DF278F
:0300680001E909A2
:0300690001F2D7CA
:03006A0001FC9600
:03006B0002064446
:03006C00020FE59B
:03006D0002197302
:03006E000222F774
:03006F00022C66FA
:030070000235CC8A
:03007100023F1E2D
:03007200024863DE
:0300730002519B9C
:03007400025AC36A
:030075000263DF44
:03007600026CE930
:030077000275E827
:03007800027ED530
:030079000287B546
:03007A0002908968
:03007B0002994F98
:03007C0002A207D6
:03007D0002AAB321
:03007E0002B34F7B
:03007F0002BBE2DF
:0300800002C46354
:0300810002CCD8D6
:0300820002D5455F
:0300830002DDA0FB
:0300840002E5F0A2
:0300850002EE3454
:0300860002F66916
:0300870002FE95E1
:030088000306B4B8
:03008900030EC49F
:03008A000316C991
:03008B00031EC58C
:03008C000326B395
:03008D00032E95AA
:03008E0003366BCB
:03008F00033E39F4
:030090000345F92C
:03009100034DAD6F
:03009200035556BD
:03009300035CF417
:030094000364847E
:03009500036C0BEE
:0300960003738869
:03009700037AFBEE
:030098000382627E
:030099000389BD1B
:03009A00039110BF
:03009B0003985A6D
:03009C00039F9629
:03009D0003A6C7F0
:03009E0003ADF0BF
:03009F0003B51195
:0300A00003BC237B
:0300A10003C32C6A
:0300A20003CA2C62
:0300A30003D12264
:0300A40003D8116D
:0300A50003DEF186
:0300A60003E5CCA3
:0300A70003EC9CCB
:0300A80003F35F00
:0300A90003FA2037
:0300AA000000D281
:0300AB0000077AD1
:0300AC00000E1B28
:0300AD000014B389
:0300AE00001B45EF
:0300AF000021C964
:0300B000002845E0
:0300B100002EB965
:0300B200003524F2
:0300B300003B8689
:0300B4000041E325
:0300B500004833CD
:0300B600004E7A7F
:0300B7000054BA38
:0300B800005AF2F9
:0300B900006122C1
:0300BA0000674894
:0300BB00006D686D
:0300BC0000737C52
:0300BD0000798B3C
:0300BE00007F932D
:0300BF0000859128
:0300C000008B862C
:0300C10000917635
:0300C20000975D47
:0300C300009D3C61
:0300C40000A31581
:0300C50000A8E2AE
:0300C60000AEACDD
:0300C70000B46E14
:0300C80000BA2655
:0300C90000BFD99C
:0300CA0000C584EA
:0300CB0000CB2641
:0300CC0000D0C1A0
:0300CD0000D65703
:0300CE0000DBE371
:0300CF0000E168E5
:0300D00000E6E95E
:0300D10000EC61DF
:0300D20000F1D169
:0300D30000F73CF7
:0300D40000FCA18C
:0300D5000101FC2A
:0300D600010752CD
:0300D700010CA475
:0300D8000111EC27
:0300D90001172CE0
:0300DA00011C679F
:0300DB0001219C64
:0300DC000126CA30
:0300DD00012BF5FF
:0300DE00013116D7
:0300DF00013631B6
:0300E000013B449D
:0300E1000140518A
:0300E20001455A7B
:0300E300014A5C73
:0300E400014F5970
:0300E50001544F74
:0300E60001593D80
:0300E700015E2493
:0300E800016309A8
:0300E9000167E8C4
:0300EA00016CC1E5
:0300EB000171920E
:0300EC0001765E3C
:0300ED00017B2470
:0300EE00017FE6A9
:0300EF000184A0E9
:0300F0000189542F
:0300F100018E037A
:0300F2000192ABCD
:0300F30001975220
:0300F400019BED80
:0300F50001A088DF
:0300F60001A51D44
:0300F70001A9ABB1
:0300F80001AE3422
:0300F90001B2B79A
:0300FA0001B73714
:0300FB0001BBAF97
:0300FC0001C0221E
:0300FD0001C492A9
:0300FE0001C8FA3C
:0300FF0001CD5FD1
:03010000022E4587
:03010100023A922D
:030102000246CBE7
:030103000252E3C2
:03010400025EE6B2
:03010500026ACAC1
:03010600027696E8
:0301070002824C25
:03010800028DE580
:0301090002996CEC
:03010A0002A4D676
:03010B0002B02817
:03010C0002BB64CF
:03010D0002C687A0
:03010E0002D19685
:03010F0002DC8B84
:0301100002E76C97
:0301110002F236C1
:0301120002FCE804
:0301130003078857
:0301140003120FC4
:03011500031C8345
:030116000326E0DD
:0301170003312B86
:03011800033B5E48
:0301190003457E1D
:03011A00034F8D03
:03011B0003598401
:03011C0003636614
:03011D00036D3A35
:03011E000376F570
:03011F000380A5B5
:03012000038A3C13
:030121000393C085
:03012200039D3406
:0301230003A6949C
:0301240003AFE541
:0301250003B922F9
:0301260003C24EC3
:0301270003CB66A1
:0301280003D4708D
:0301290003DD6A89
:03012A0003E65198
:03012B0003EF26B9
:03012C0003F7EBEB
:03012D000000A42B
:03012E000009487D
:03012F000011DAE2
:03013000001A6250
:030131000022D5D4
:03013200002B3C63
:0301330000339204
:03013400003BDAB3
:030135000044146F
:03013600004C3E3C
:030137000054571A
:03013800005C6503
:03013900006464FB
:03013A00006C5303
:03013B000074321B
:03013C00007C093B
:03013D000083CC70
:03013E00008B83B0
:03013F0000932DFD
:03014000009ACB57
:0301410000A25ABF
:0301420000A9DC35
:0301430000B152B6
:0301440000B8B947
:0301450000C016E1
:0301460000C7638C
:0301470000CEA740
:0301480000D5DB04
:0301490000DD03D3
:03014A0000E421AD
:03014B0000EB3294
:03014C0000F23589
:03014D0000F92E88
:03014E0001001D90
:03014F000106FDA9
:03015000010DD5C9
:0301510001149DF9
:03015200011B5F2F
:0301530001221274
:030154000128BBC4
:03015500012F5720
:030156000135EC84
:03015700013C73F5
:030158000142EF72
:03015900014963F6
:03015A00014FCA88
:03015B0001562723
:03015C00015C7CC7
:03015D000162C577
:03015E0001690232
:03015F00016F39F4
:03016000017564C2
:03016100017B859A
:0301620001819A7E
:030163000187A968
:03016400018DAC5E
:030165000193A85B
:0301660001999963
:03016700019F7F76
:0301680001A55F8F
:0301690001AB33B4
:03016A0001B0FEE3
:03016B0001B6C218
:03016C0001BC7D56
:03016D0001C22E9E
:03016E0001C7D4F2
:03016F0001CD7748
:0301700001D30CAC
:0301710001D8981A
:0301720001DE208B
:0301730001E39D08
:0301740001E9128C
:0301750001EE7E1A
:0301760001F3E1B1
:0301770001F93D4E
:0301780001FE93F2
:030179000203E09E
:03017A0002092453
:03017B00020E6110
:03017C00021395D6
:03017D000218BFA6
:03017E00021DE679
:03017F0002230553
:0301800002281A38
:03018100022D2B21
:0301820002323115
:0301830002372F11
:03018400023C2812
:030185000241181C
:030186000246042A
:03018700024AE544
:03018800024FC063
:0301890002549588
:03018A00025963B4
:03018B00025E2AE7
:03018C000262E725
:03018D000267A165
:03018E00026C55AB
:03018F000270FFFC
:030190000275A550
:03019100027A44AB
:03019200027EDC0E
:0301930002836D77
:030194000287F6E9
:03019500028C7C5D
:030196000290FBD9
:030197000295725C
:030198000299E5E4
:03019900029E4F74
:03019A0002A2B707
:03019B0002A716A2
:03019C0002AB6F44
:03019D0002AFC2EC
:03019E0002B40C9C
:03019F0002B8574C
:0301A00002BC9509
:0301A10002C0D4C5
:0301A20002C5088B
:0301A30002C93757
:0301A40002CD6227
:0301A50002D189FB
:0301A60002D5A7D8
:0301A70002D9C1B9
:0301A80002DDD5A0
:0301A90002E1E38D
:0301AA0002E5EE7D
:0301AB0002E9F175
:0301AC0002EDEE73
:0301AD0002F1E775
:0301AE0002F5DF78
:0301AF0002F9CD85
:0301B00002FDB39A
:0301B100030198AF
:0301B200030577CB
:0301B300030953EA
:0301B400030D2810
:0301B5000310F83C
:0301B6000314C46B
:0301B700031889A1
:0301B800031C4ADB
:0301B90003200818
:0301BA000323BD5F
:0301BB00032774A3
:0301BC00032B21F1
:0301BD00032EC945
:0301BE0003326C9D
:0301BF0003360CF8
:0301C0000339A858
:0301C100033D3DBE
:0301C2000340D027
:0301C30003446191
:0301C4000347EA04
:0301C500034B6E7B
:0301C600034EEDF8
:0301C70003526A76
:0301C8000355E1FB
:0301C90003595285
:0301CA00035CC211
:0301CB0003602CA2
:0301CC0003639238
:0301CD000366F3D3
:0301CE00036A526F
:0301CF00036DAB12
:0301D0000370FFBA
:0301D10003745262
:0301D2000377A010
:0301D300037AE9C3
:0301D400037E2F78
:0301D50003817033
:0301D6000384ACF3
:0301D7000387E5B6
:0301D800038B1B7B
:0301D900038E4C46
:0301DA0003917B13
:0301DB000394A5E5
:0301DC000397CBBB
:0301DD00039AED95
:0301DE00039E0A73
:0301DF0003A12554
:0301E00003A43C39
:0301E10003A75021
:0301E20003AA610C
:0301E30003AD6BFE
:0301E40003B076EF
:0301E50003B379E8
:0301E60003B67BE2
:0301E70003B978E1
:0301E80003BC72E3
:0301E90003BF6AE7
:0301EA0003C25DF0
:0301EB0003C54BFE
:0301EC0003C8370E
:0301ED0003CB2120
:0301EE0003CE0934
:0301EF0003D0E951
:0301F00003D3C86E
:0301F10003D6A48E
:0301F20003D97CB2
:0301F30003DC4FDB
:0301F40003DF2006
:0301F50003E1F330
:0301F60003E4BD62
:0301F70003E78398
:0301F80003EA47D0
:0301F90003ED0A09
:0301FA0003EFCA46
:0301FB0003F28785
:0301FC0003F53BCD
:0301FD0003F7F213
:0301FE0003FAA65B
:0301FF0003FD53AA
:00000001ff
